{
  "contractName": "ThePool",
  "abi": [
    {
      "inputs": [
        {
          "internalType": "address",
          "name": "tokenA",
          "type": "address"
        },
        {
          "internalType": "address",
          "name": "tokenB",
          "type": "address"
        }
      ],
      "stateMutability": "nonpayable",
      "type": "constructor"
    },
    {
      "anonymous": false,
      "inputs": [
        {
          "indexed": true,
          "internalType": "address",
          "name": "provider",
          "type": "address"
        },
        {
          "indexed": false,
          "internalType": "uint256",
          "name": "amount",
          "type": "uint256"
        }
      ],
      "name": "AddLiquidity",
      "type": "event"
    },
    {
      "anonymous": false,
      "inputs": [
        {
          "indexed": true,
          "internalType": "address",
          "name": "owner",
          "type": "address"
        },
        {
          "indexed": true,
          "internalType": "address",
          "name": "spender",
          "type": "address"
        },
        {
          "indexed": false,
          "internalType": "uint256",
          "name": "value",
          "type": "uint256"
        }
      ],
      "name": "Approval",
      "type": "event"
    },
    {
      "anonymous": false,
      "inputs": [
        {
          "indexed": true,
          "internalType": "address",
          "name": "previousOwner",
          "type": "address"
        },
        {
          "indexed": true,
          "internalType": "address",
          "name": "newOwner",
          "type": "address"
        }
      ],
      "name": "OwnershipTransferred",
      "type": "event"
    },
    {
      "anonymous": false,
      "inputs": [
        {
          "indexed": true,
          "internalType": "address",
          "name": "provider",
          "type": "address"
        },
        {
          "indexed": false,
          "internalType": "uint256",
          "name": "amount",
          "type": "uint256"
        }
      ],
      "name": "RemoveLiquidity",
      "type": "event"
    },
    {
      "anonymous": false,
      "inputs": [
        {
          "indexed": true,
          "internalType": "address",
          "name": "from",
          "type": "address"
        },
        {
          "indexed": true,
          "internalType": "address",
          "name": "to",
          "type": "address"
        },
        {
          "indexed": false,
          "internalType": "uint256",
          "name": "value",
          "type": "uint256"
        }
      ],
      "name": "Transfer",
      "type": "event"
    },
    {
      "inputs": [
        {
          "internalType": "address",
          "name": "owner",
          "type": "address"
        },
        {
          "internalType": "address",
          "name": "spender",
          "type": "address"
        }
      ],
      "name": "allowance",
      "outputs": [
        {
          "internalType": "uint256",
          "name": "",
          "type": "uint256"
        }
      ],
      "stateMutability": "view",
      "type": "function"
    },
    {
      "inputs": [
        {
          "internalType": "address",
          "name": "spender",
          "type": "address"
        },
        {
          "internalType": "uint256",
          "name": "amount",
          "type": "uint256"
        }
      ],
      "name": "approve",
      "outputs": [
        {
          "internalType": "bool",
          "name": "",
          "type": "bool"
        }
      ],
      "stateMutability": "nonpayable",
      "type": "function"
    },
    {
      "inputs": [
        {
          "internalType": "address",
          "name": "account",
          "type": "address"
        }
      ],
      "name": "balanceOf",
      "outputs": [
        {
          "internalType": "uint256",
          "name": "",
          "type": "uint256"
        }
      ],
      "stateMutability": "view",
      "type": "function"
    },
    {
      "inputs": [],
      "name": "decimals",
      "outputs": [
        {
          "internalType": "uint8",
          "name": "",
          "type": "uint8"
        }
      ],
      "stateMutability": "view",
      "type": "function"
    },
    {
      "inputs": [
        {
          "internalType": "address",
          "name": "spender",
          "type": "address"
        },
        {
          "internalType": "uint256",
          "name": "subtractedValue",
          "type": "uint256"
        }
      ],
      "name": "decreaseAllowance",
      "outputs": [
        {
          "internalType": "bool",
          "name": "",
          "type": "bool"
        }
      ],
      "stateMutability": "nonpayable",
      "type": "function"
    },
    {
      "inputs": [
        {
          "internalType": "address",
          "name": "spender",
          "type": "address"
        },
        {
          "internalType": "uint256",
          "name": "addedValue",
          "type": "uint256"
        }
      ],
      "name": "increaseAllowance",
      "outputs": [
        {
          "internalType": "bool",
          "name": "",
          "type": "bool"
        }
      ],
      "stateMutability": "nonpayable",
      "type": "function"
    },
    {
      "inputs": [],
      "name": "name",
      "outputs": [
        {
          "internalType": "string",
          "name": "",
          "type": "string"
        }
      ],
      "stateMutability": "view",
      "type": "function"
    },
    {
      "inputs": [],
      "name": "owner",
      "outputs": [
        {
          "internalType": "address",
          "name": "",
          "type": "address"
        }
      ],
      "stateMutability": "view",
      "type": "function"
    },
    {
      "inputs": [],
      "name": "renounceOwnership",
      "outputs": [],
      "stateMutability": "nonpayable",
      "type": "function"
    },
    {
      "inputs": [],
      "name": "symbol",
      "outputs": [
        {
          "internalType": "string",
          "name": "",
          "type": "string"
        }
      ],
      "stateMutability": "view",
      "type": "function"
    },
    {
      "inputs": [],
      "name": "totalSupply",
      "outputs": [
        {
          "internalType": "uint256",
          "name": "",
          "type": "uint256"
        }
      ],
      "stateMutability": "view",
      "type": "function"
    },
    {
      "inputs": [
        {
          "internalType": "address",
          "name": "recipient",
          "type": "address"
        },
        {
          "internalType": "uint256",
          "name": "amount",
          "type": "uint256"
        }
      ],
      "name": "transfer",
      "outputs": [
        {
          "internalType": "bool",
          "name": "",
          "type": "bool"
        }
      ],
      "stateMutability": "nonpayable",
      "type": "function"
    },
    {
      "inputs": [
        {
          "internalType": "address",
          "name": "sender",
          "type": "address"
        },
        {
          "internalType": "address",
          "name": "recipient",
          "type": "address"
        },
        {
          "internalType": "uint256",
          "name": "amount",
          "type": "uint256"
        }
      ],
      "name": "transferFrom",
      "outputs": [
        {
          "internalType": "bool",
          "name": "",
          "type": "bool"
        }
      ],
      "stateMutability": "nonpayable",
      "type": "function"
    },
    {
      "inputs": [
        {
          "internalType": "address",
          "name": "newOwner",
          "type": "address"
        }
      ],
      "name": "transferOwnership",
      "outputs": [],
      "stateMutability": "nonpayable",
      "type": "function"
    },
    {
      "inputs": [
        {
          "internalType": "uint256",
          "name": "amountA",
          "type": "uint256"
        },
        {
          "internalType": "uint256",
          "name": "amountB",
          "type": "uint256"
        }
      ],
      "name": "addLiquidity",
      "outputs": [],
      "stateMutability": "nonpayable",
      "type": "function"
    },
    {
      "inputs": [
        {
          "internalType": "uint256",
          "name": "amount",
          "type": "uint256"
        }
      ],
      "name": "removeLiquidity",
      "outputs": [],
      "stateMutability": "nonpayable",
      "type": "function"
    },
    {
      "inputs": [
        {
          "internalType": "uint256",
          "name": "amountAIn",
          "type": "uint256"
        },
        {
          "internalType": "uint256",
          "name": "amountBOut",
          "type": "uint256"
        }
      ],
      "name": "swapAForB",
      "outputs": [],
      "stateMutability": "nonpayable",
      "type": "function"
    },
    {
      "inputs": [
        {
          "internalType": "uint256",
          "name": "amountA",
          "type": "uint256"
        }
      ],
      "name": "getAmountBByA",
      "outputs": [
        {
          "internalType": "uint256",
          "name": "",
          "type": "uint256"
        }
      ],
      "stateMutability": "view",
      "type": "function"
    },
    {
      "inputs": [
        {
          "internalType": "uint256",
          "name": "amountBIn",
          "type": "uint256"
        },
        {
          "internalType": "uint256",
          "name": "amountAOut",
          "type": "uint256"
        }
      ],
      "name": "swapBForA",
      "outputs": [],
      "stateMutability": "nonpayable",
      "type": "function"
    },
    {
      "inputs": [
        {
          "internalType": "uint256",
          "name": "amountB",
          "type": "uint256"
        }
      ],
      "name": "getAmountAByB",
      "outputs": [
        {
          "internalType": "uint256",
          "name": "",
          "type": "uint256"
        }
      ],
      "stateMutability": "view",
      "type": "function"
    }
  ],
  "bytecode": "0x60806040523480156200001157600080fd5b50604051620020bd380380620020bd833981016040819052620000349162000209565b6040518060400160405280600781526020016626282a37b5b2b760c91b8152506040518060400160405280600781526020016626282a37b5b2b760c91b8152506200008e62000088620000f260201b60201c565b620000f6565b8151620000a390600490602085019062000146565b508051620000b990600590602084019062000146565b5050600680546001600160a01b039485166001600160a01b0319918216179091556007805493909416921691909117909155506200027e565b3390565b600080546001600160a01b038381166001600160a01b0319831681178455604051919092169283917f8be0079c531659141344cd1fd0a4f28419497f9722a3daafe3b4186f6b6457e09190a35050565b828054620001549062000241565b90600052602060002090601f016020900481019282620001785760008555620001c3565b82601f106200019357805160ff1916838001178555620001c3565b82800160010185558215620001c3579182015b82811115620001c3578251825591602001919060010190620001a6565b50620001d1929150620001d5565b5090565b5b80821115620001d15760008155600101620001d6565b80516001600160a01b03811681146200020457600080fd5b919050565b600080604083850312156200021d57600080fd5b6200022883620001ec565b91506200023860208401620001ec565b90509250929050565b600181811c908216806200025657607f821691505b602082108114156200027857634e487b7160e01b600052602260045260246000fd5b50919050565b611e2f806200028e6000396000f3fe608060405234801561001057600080fd5b506004361061012c5760003560e01c8063715018a6116100ad578063a457c2d711610071578063a457c2d71461026e578063a9059cbb14610281578063dab4e35414610294578063dd62ed3e146102a7578063f2fde38b146102e057600080fd5b8063715018a61461021d5780638da5cb5b1461022557806395d89b41146102405780639c8f9f23146102485780639cd441da1461025b57600080fd5b806339509351116100f457806339509351146101a6578063553a1db7146101b95780635938c86b146101ce57806362d830df146101e157806370a08231146101f457600080fd5b806306fdde0314610131578063095ea7b31461014f57806318160ddd1461017257806323b872dd14610184578063313ce56714610197575b600080fd5b6101396102f3565b6040516101469190611b79565b60405180910390f35b61016261015d366004611bea565b610385565b6040519015158152602001610146565b6003545b604051908152602001610146565b610162610192366004611c14565b61039b565b60405160128152602001610146565b6101626101b4366004611bea565b61044a565b6101cc6101c7366004611c50565b610486565b005b6101cc6101dc366004611c50565b610826565b6101766101ef366004611c72565b610a45565b610176610202366004611c8b565b6001600160a01b031660009081526001602052604090205490565b6101cc610be7565b6000546040516001600160a01b039091168152602001610146565b610139610c4d565b6101cc610256366004611c72565b610c5c565b6101cc610269366004611c50565b610f0e565b61016261027c366004611bea565b6112f8565b61016261028f366004611bea565b611391565b6101766102a2366004611c72565b61139e565b6101766102b5366004611ca6565b6001600160a01b03918216600090815260026020908152604080832093909416825291909152205490565b6101cc6102ee366004611c8b565b61152d565b60606004805461030290611cd9565b80601f016020809104026020016040519081016040528092919081815260200182805461032e90611cd9565b801561037b5780601f106103505761010080835404028352916020019161037b565b820191906000526020600020905b81548152906001019060200180831161035e57829003601f168201915b5050505050905090565b60006103923384846115f8565b50600192915050565b60006103a884848461171d565b6001600160a01b0384166000908152600260209081526040808320338452909152902054828110156104325760405162461bcd60e51b815260206004820152602860248201527f45524332303a207472616e7366657220616d6f756e74206578636565647320616044820152676c6c6f77616e636560c01b60648201526084015b60405180910390fd5b61043f85338584036115f8565b506001949350505050565b3360008181526002602090815260408083206001600160a01b03871684529091528120549091610392918590610481908690611d2a565b6115f8565b600082116104cd5760405162461bcd60e51b8152602060048201526014602482015273696e73756666696369656e7420616d6f756e744160601b6044820152606401610429565b600081116105145760405162461bcd60e51b815260206004820152601460248201527334b739bab33334b1b4b2b73a1030b6b7bab73a2160611b6044820152606401610429565b6006546040516370a0823160e01b81523060048201819052916000916001600160a01b03909116906370a0823190602401602060405180830381865afa158015610562573d6000803e3d6000fd5b505050506040513d601f19601f820116820180604052508101906105869190611d42565b6007546040516370a0823160e01b81526001600160a01b038581166004830152929350600092909116906370a0823190602401602060405180830381865afa1580156105d6573d6000803e3d6000fd5b505050506040513d601f19601f820116820180604052508101906105fa9190611d42565b6006546040516323b872dd60e01b81529192506001600160a01b0316906323b872dd9061062f90339030908a90600401611d5b565b6020604051808303816000875af115801561064e573d6000803e3d6000fd5b505050506040513d601f19601f820116820180604052508101906106729190611d7f565b5060075460405163a9059cbb60e01b8152336004820152602481018690526001600160a01b039091169063a9059cbb906044015b6020604051808303816000875af11580156106c5573d6000803e3d6000fd5b505050506040513d601f19601f820116820180604052508101906106e99190611d7f565b506006546040516370a0823160e01b81526001600160a01b03858116600483015260009216906370a0823190602401602060405180830381865afa158015610735573d6000803e3d6000fd5b505050506040513d601f19601f820116820180604052508101906107599190611d42565b6007546040516370a0823160e01b81526001600160a01b038781166004830152929350600092909116906370a0823190602401602060405180830381865afa1580156107a9573d6000803e3d6000fd5b505050506040513d601f19601f820116820180604052508101906107cd9190611d42565b90506107d98385611da1565b6107e38284611da1565b101561081d5760405162461bcd60e51b8152602060048201526009602482015268696e76616c6964204b60b81b6044820152606401610429565b50505050505050565b6000821161086d5760405162461bcd60e51b815260206004820152601460248201527334b739bab33334b1b4b2b73a1030b6b7bab73a2160611b6044820152606401610429565b600081116108b45760405162461bcd60e51b8152602060048201526014602482015273696e73756666696369656e7420616d6f756e744160601b6044820152606401610429565b6006546040516370a0823160e01b81523060048201819052916000916001600160a01b03909116906370a0823190602401602060405180830381865afa158015610902573d6000803e3d6000fd5b505050506040513d601f19601f820116820180604052508101906109269190611d42565b6007546040516370a0823160e01b81526001600160a01b038581166004830152929350600092909116906370a0823190602401602060405180830381865afa158015610976573d6000803e3d6000fd5b505050506040513d601f19601f8201168201806040525081019061099a9190611d42565b60065460405163a9059cbb60e01b8152336004820152602481018790529192506001600160a01b03169063a9059cbb906044016020604051808303816000875af11580156109ec573d6000803e3d6000fd5b505050506040513d601f19601f82011682018060405250810190610a109190611d7f565b506007546040516323b872dd60e01b81526001600160a01b03909116906323b872dd906106a690339030908a90600401611d5b565b6000808211610a8c5760405162461bcd60e51b81526020600482015260136024820152721a5b9cdd59999a58da595b9d08185b5bdd5b9d606a1b6044820152606401610429565b6006546040516370a0823160e01b81523060048201819052916000916001600160a01b03909116906370a0823190602401602060405180830381865afa158015610ada573d6000803e3d6000fd5b505050506040513d601f19601f82011682018060405250810190610afe9190611d42565b6007546040516370a0823160e01b81526001600160a01b038581166004830152929350600092909116906370a0823190602401602060405180830381865afa158015610b4e573d6000803e3d6000fd5b505050506040513d601f19601f82011682018060405250810190610b729190611d42565b9050600082118015610b845750600081115b610bc95760405162461bcd60e51b8152602060048201526016602482015275696e73756666696369656e74206c697175696469747960501b6044820152606401610429565b80610bd48387611da1565b610bde9190611dc0565b95945050505050565b6000546001600160a01b03163314610c415760405162461bcd60e51b815260206004820181905260248201527f4f776e61626c653a2063616c6c6572206973206e6f7420746865206f776e65726044820152606401610429565b610c4b60006118ec565b565b60606005805461030290611cd9565b33600090815260016020526040902054811115610cb25760405162461bcd60e51b8152602060048201526014602482015273696e73756666696369656e742062616c616e636560601b6044820152606401610429565b6006546040516370a0823160e01b81523060048201819052916000916001600160a01b03909116906370a0823190602401602060405180830381865afa158015610d00573d6000803e3d6000fd5b505050506040513d601f19601f82011682018060405250810190610d249190611d42565b6007546040516370a0823160e01b81526001600160a01b038581166004830152929350600092909116906370a0823190602401602060405180830381865afa158015610d74573d6000803e3d6000fd5b505050506040513d601f19601f82011682018060405250810190610d989190611d42565b90506000610da560035490565b9050600081610db48588611da1565b610dbe9190611dc0565b9050600082610dcd8589611da1565b610dd79190611dc0565b60405188815290915033907fdfdd120ded9b7afc0c23dd5310e93aaa3e1c3b9f75af9b805fab3030842439f29060200160405180910390a2610e19338861193c565b60065460405163a9059cbb60e01b8152336004820152602481018490526001600160a01b039091169063a9059cbb906044016020604051808303816000875af1158015610e6a573d6000803e3d6000fd5b505050506040513d601f19601f82011682018060405250810190610e8e9190611d7f565b5060075460405163a9059cbb60e01b8152336004820152602481018390526001600160a01b039091169063a9059cbb906044016020604051808303816000875af1158015610ee0573d6000803e3d6000fd5b505050506040513d601f19601f82011682018060405250810190610f049190611d7f565b5050505050505050565b6006546040516370a0823160e01b81523060048201819052916000916001600160a01b03909116906370a0823190602401602060405180830381865afa158015610f5c573d6000803e3d6000fd5b505050506040513d601f19601f82011682018060405250810190610f809190611d42565b6007546040516370a0823160e01b81526001600160a01b038581166004830152929350600092909116906370a0823190602401602060405180830381865afa158015610fd0573d6000803e3d6000fd5b505050506040513d601f19601f82011682018060405250810190610ff49190611d42565b6006546040516323b872dd60e01b81529192506001600160a01b0316906323b872dd9061102990339087908a90600401611d5b565b6020604051808303816000875af1158015611048573d6000803e3d6000fd5b505050506040513d601f19601f8201168201806040525081019061106c9190611d7f565b506007546040516323b872dd60e01b81526001600160a01b03909116906323b872dd906110a190339087908990600401611d5b565b6020604051808303816000875af11580156110c0573d6000803e3d6000fd5b505050506040513d601f19601f820116820180604052508101906110e49190611d7f565b506006546040516370a0823160e01b81526001600160a01b03858116600483015260009216906370a0823190602401602060405180830381865afa158015611130573d6000803e3d6000fd5b505050506040513d601f19601f820116820180604052508101906111549190611d42565b6007546040516370a0823160e01b81526001600160a01b038781166004830152929350600092909116906370a0823190602401602060405180830381865afa1580156111a4573d6000803e3d6000fd5b505050506040513d601f19601f820116820180604052508101906111c89190611d42565b90506111d48385611da1565b6111de8284611da1565b10156112185760405162461bcd60e51b8152602060048201526009602482015268696e76616c6964204b60b81b6044820152606401610429565b600061122360035490565b9050600081611233575087611268565b61126586611241848c611da1565b61124b9190611dc0565b86611256858c611da1565b6112609190611dc0565b611a82565b90505b600081116112ae5760405162461bcd60e51b815260206004820152601360248201527206c70746f6b656e20616d6f756e74203d3d203606c1b6044820152606401610429565b60405181815233907fbb37879e252460856212dc4e8c6edf174e473df9423e3a7feccd21f8c28d587a9060200160405180910390a26112ed3382611a9a565b505050505050505050565b3360009081526002602090815260408083206001600160a01b03861684529091528120548281101561137a5760405162461bcd60e51b815260206004820152602560248201527f45524332303a2064656372656173656420616c6c6f77616e63652062656c6f77604482015264207a65726f60d81b6064820152608401610429565b61138733858584036115f8565b5060019392505050565b600061039233848461171d565b60008082116113e55760405162461bcd60e51b81526020600482015260136024820152721a5b9cdd59999a58da595b9d08185b5bdd5b9d606a1b6044820152606401610429565b6006546040516370a0823160e01b81523060048201819052916000916001600160a01b03909116906370a0823190602401602060405180830381865afa158015611433573d6000803e3d6000fd5b505050506040513d601f19601f820116820180604052508101906114579190611d42565b6007546040516370a0823160e01b81526001600160a01b038581166004830152929350600092909116906370a0823190602401602060405180830381865afa1580156114a7573d6000803e3d6000fd5b505050506040513d601f19601f820116820180604052508101906114cb9190611d42565b90506000821180156114dd5750600081115b6115225760405162461bcd60e51b8152602060048201526016602482015275696e73756666696369656e74206c697175696469747960501b6044820152606401610429565b81610bd48287611da1565b6000546001600160a01b031633146115875760405162461bcd60e51b815260206004820181905260248201527f4f776e61626c653a2063616c6c6572206973206e6f7420746865206f776e65726044820152606401610429565b6001600160a01b0381166115ec5760405162461bcd60e51b815260206004820152602660248201527f4f776e61626c653a206e6577206f776e657220697320746865207a65726f206160448201526564647265737360d01b6064820152608401610429565b6115f5816118ec565b50565b6001600160a01b03831661165a5760405162461bcd60e51b8152602060048201526024808201527f45524332303a20617070726f76652066726f6d20746865207a65726f206164646044820152637265737360e01b6064820152608401610429565b6001600160a01b0382166116bb5760405162461bcd60e51b815260206004820152602260248201527f45524332303a20617070726f766520746f20746865207a65726f206164647265604482015261737360f01b6064820152608401610429565b6001600160a01b0383811660008181526002602090815260408083209487168084529482529182902085905590518481527f8c5be1e5ebec7d5bd14f71427d1e84f3dd0314c0f7b2291e5b200ac8c7c3b92591015b60405180910390a3505050565b6001600160a01b0383166117815760405162461bcd60e51b815260206004820152602560248201527f45524332303a207472616e736665722066726f6d20746865207a65726f206164604482015264647265737360d81b6064820152608401610429565b6001600160a01b0382166117e35760405162461bcd60e51b815260206004820152602360248201527f45524332303a207472616e7366657220746f20746865207a65726f206164647260448201526265737360e81b6064820152608401610429565b6001600160a01b0383166000908152600160205260409020548181101561185b5760405162461bcd60e51b815260206004820152602660248201527f45524332303a207472616e7366657220616d6f756e7420657863656564732062604482015265616c616e636560d01b6064820152608401610429565b6001600160a01b03808516600090815260016020526040808220858503905591851681529081208054849290611892908490611d2a565b92505081905550826001600160a01b0316846001600160a01b03167fddf252ad1be2c89b69c2b068fc378daa952ba7f163c4a11628f55a4df523b3ef846040516118de91815260200190565b60405180910390a350505050565b600080546001600160a01b038381166001600160a01b0319831681178455604051919092169283917f8be0079c531659141344cd1fd0a4f28419497f9722a3daafe3b4186f6b6457e09190a35050565b6001600160a01b03821661199c5760405162461bcd60e51b815260206004820152602160248201527f45524332303a206275726e2066726f6d20746865207a65726f206164647265736044820152607360f81b6064820152608401610429565b6001600160a01b03821660009081526001602052604090205481811015611a105760405162461bcd60e51b815260206004820152602260248201527f45524332303a206275726e20616d6f756e7420657863656564732062616c616e604482015261636560f01b6064820152608401610429565b6001600160a01b0383166000908152600160205260408120838303905560038054849290611a3f908490611de2565b90915550506040518281526000906001600160a01b038516907fddf252ad1be2c89b69c2b068fc378daa952ba7f163c4a11628f55a4df523b3ef90602001611710565b6000818310611a915781611a93565b825b9392505050565b6001600160a01b038216611af05760405162461bcd60e51b815260206004820152601f60248201527f45524332303a206d696e7420746f20746865207a65726f2061646472657373006044820152606401610429565b8060036000828254611b029190611d2a565b90915550506001600160a01b03821660009081526001602052604081208054839290611b2f908490611d2a565b90915550506040518181526001600160a01b038316906000907fddf252ad1be2c89b69c2b068fc378daa952ba7f163c4a11628f55a4df523b3ef9060200160405180910390a35050565b600060208083528351808285015260005b81811015611ba657858101830151858201604001528201611b8a565b81811115611bb8576000604083870101525b50601f01601f1916929092016040019392505050565b80356001600160a01b0381168114611be557600080fd5b919050565b60008060408385031215611bfd57600080fd5b611c0683611bce565b946020939093013593505050565b600080600060608486031215611c2957600080fd5b611c3284611bce565b9250611c4060208501611bce565b9150604084013590509250925092565b60008060408385031215611c6357600080fd5b50508035926020909101359150565b600060208284031215611c8457600080fd5b5035919050565b600060208284031215611c9d57600080fd5b611a9382611bce565b60008060408385031215611cb957600080fd5b611cc283611bce565b9150611cd060208401611bce565b90509250929050565b600181811c90821680611ced57607f821691505b60208210811415611d0e57634e487b7160e01b600052602260045260246000fd5b50919050565b634e487b7160e01b600052601160045260246000fd5b60008219821115611d3d57611d3d611d14565b500190565b600060208284031215611d5457600080fd5b5051919050565b6001600160a01b039384168152919092166020820152604081019190915260600190565b600060208284031215611d9157600080fd5b81518015158114611a9357600080fd5b6000816000190483118215151615611dbb57611dbb611d14565b500290565b600082611ddd57634e487b7160e01b600052601260045260246000fd5b500490565b600082821015611df457611df4611d14565b50039056fea26469706673582212204bd8284c1c6c5efc3fab1a77ffb5262a68eaac3b222027ba84f812017558929c64736f6c634300080a0033",
  "immutableReferences": {},
  "source": "// SPDX-License-Identifier: MIT\npragma solidity ^0.8.0;\n\nimport './LPToken.sol';\nimport '@openzeppelin/contracts/token/ERC20/IERC20.sol';\nimport \"@openzeppelin/contracts/utils/math/Math.sol\";\n\ncontract ThePool is LPToken {\n  IERC20 private _tokenA;\n  IERC20 private _tokenB;\n\n  event AddLiquidity(address indexed provider, uint amount);\n  event RemoveLiquidity(address indexed provider, uint amount);\n\n  constructor(address tokenA, address tokenB) LPToken() {\n    _tokenA = IERC20(tokenA);\n    _tokenB = IERC20(tokenB);\n  }\n\n  function addLiquidity(uint amountA, uint amountB) public {\n\n    address contractAddr = address(this);\n    uint reserveA = _tokenA.balanceOf(contractAddr);\n    uint reserveB = _tokenB.balanceOf(contractAddr);\n    \n    _tokenA.transferFrom(msg.sender, contractAddr, amountA);\n    _tokenB.transferFrom(msg.sender, contractAddr, amountB);\n\n    uint newReserveA = _tokenA.balanceOf(contractAddr);\n    uint newReserveB = _tokenB.balanceOf(contractAddr);\n\n    // reserveA * reserveB = k\n    // newReserveA * newReserveB >= k\n    require(newReserveA * newReserveB >= reserveA * reserveB, 'invalid K');\n\n    uint totalSupply = totalSupply();\n    uint lpTokenAmount = 0;\n    if (totalSupply == 0) {\n      lpTokenAmount = amountA;\n    } else {\n      lpTokenAmount = Math.min(amountA * totalSupply / reserveA, \n                                amountB * totalSupply / reserveB);\n    }\n    \n    require(lpTokenAmount > 0, 'lptoken amount == 0');\n\n    emit AddLiquidity(msg.sender, lpTokenAmount);\n    _mint(msg.sender, lpTokenAmount);\n  }\n\n  function removeLiquidity(uint amount) public {\n    require(balanceOf(msg.sender) >= amount, 'insufficient balance');\n\n    address contractAddr = address(this);\n\n    uint reserveA = _tokenA.balanceOf(contractAddr);\n    uint reserveB = _tokenB.balanceOf(contractAddr);\n\n    uint totalSupply = totalSupply();\n    uint amountA = amount * reserveA / totalSupply;\n    uint amountB = amount * reserveB / totalSupply;\n\n    emit RemoveLiquidity(msg.sender, amount);\n\n    _burn(msg.sender, amount);\n    _tokenA.transfer(msg.sender, amountA);\n    _tokenB.transfer(msg.sender, amountB);\n  }\n\n  function swapAForB(uint amountAIn, uint amountBOut) public {\n\n    require(amountAIn > 0, 'insufficient amountA');\n    require(amountBOut > 0, 'insufficient amountB');\n\n    address contractAddr = address(this);\n\n    uint reserveA = _tokenA.balanceOf(contractAddr);\n    uint reserveB = _tokenB.balanceOf(contractAddr);\n    \n    _tokenA.transferFrom(msg.sender, address(this), amountAIn);\n    _tokenB.transfer(msg.sender, amountBOut);\n\n    uint newReserveA = _tokenA.balanceOf(contractAddr);\n    uint newReserveB = _tokenB.balanceOf(contractAddr);\n\n    // reserveA * reserveB = k\n    // newReserveA * newReserveB >= k\n    require(newReserveA * newReserveB >= reserveA * reserveB, 'invalid K');\n  }\n\n  function getAmountBByA(uint amountA) public view returns (uint) {\n    require(amountA > 0, 'insufficient amount');\n\n    address contractAddr = address(this);\n    uint reserveA = _tokenA.balanceOf(contractAddr);\n    uint reserveB = _tokenB.balanceOf(contractAddr);\n    require(reserveA > 0 && reserveB > 0, 'insufficient liquidity');\n\n    return amountA * reserveB / reserveA;\n  }\n\n  function swapBForA(uint amountBIn, uint amountAOut) public {\n\n    require(amountBIn > 0, 'insufficient amountB');\n    require(amountAOut > 0, 'insufficient amountA');\n\n    address contractAddr = address(this);\n\n    uint reserveA = _tokenA.balanceOf(contractAddr);\n    uint reserveB = _tokenB.balanceOf(contractAddr);\n    \n    _tokenA.transfer(msg.sender, amountAOut);\n    _tokenB.transferFrom(msg.sender, address(this), amountBIn);\n\n    uint newReserveA = _tokenA.balanceOf(contractAddr);\n    uint newReserveB = _tokenB.balanceOf(contractAddr);\n\n    // reserveA * reserveB = k\n    // newReserveA * newReserveB >= k\n    require(newReserveA * newReserveB >= reserveA * reserveB, 'invalid K');\n  }\n\n  function getAmountAByB(uint amountB) public view returns (uint) {\n    require(amountB > 0, 'insufficient amount');\n\n    address contractAddr = address(this);\n    uint reserveA = _tokenA.balanceOf(contractAddr);\n    uint reserveB = _tokenB.balanceOf(contractAddr);\n    require(reserveA > 0 && reserveB > 0, 'insufficient liquidity');\n\n    return amountB * reserveA / reserveB;\n  }\n}",
  "sourcePath": "/Users/Chaiyapong/3ds/projects/fullstack-blockchain-defi-solidity-vuejs-golang/chapter-05-connect-smartcontract-nuxtjs/5.02-login-with-metamask/contracts/ThePool.sol",
  "compiler": {
    "name": "solc",
    "version": "0.8.10+commit.fc410830.Emscripten.clang"
  },
  "schemaVersion": "3.4.3",
  "updatedAt": "2021-12-06T09:54:41.522Z",
  "devdoc": {
    "kind": "dev",
    "methods": {
      "allowance(address,address)": {
        "details": "See {IERC20-allowance}."
      },
      "approve(address,uint256)": {
        "details": "See {IERC20-approve}. Requirements: - `spender` cannot be the zero address."
      },
      "balanceOf(address)": {
        "details": "See {IERC20-balanceOf}."
      },
      "decimals()": {
        "details": "Returns the number of decimals used to get its user representation. For example, if `decimals` equals `2`, a balance of `505` tokens should be displayed to a user as `5.05` (`505 / 10 ** 2`). Tokens usually opt for a value of 18, imitating the relationship between Ether and Wei. This is the value {ERC20} uses, unless this function is overridden; NOTE: This information is only used for _display_ purposes: it in no way affects any of the arithmetic of the contract, including {IERC20-balanceOf} and {IERC20-transfer}."
      },
      "decreaseAllowance(address,uint256)": {
        "details": "Atomically decreases the allowance granted to `spender` by the caller. This is an alternative to {approve} that can be used as a mitigation for problems described in {IERC20-approve}. Emits an {Approval} event indicating the updated allowance. Requirements: - `spender` cannot be the zero address. - `spender` must have allowance for the caller of at least `subtractedValue`."
      },
      "increaseAllowance(address,uint256)": {
        "details": "Atomically increases the allowance granted to `spender` by the caller. This is an alternative to {approve} that can be used as a mitigation for problems described in {IERC20-approve}. Emits an {Approval} event indicating the updated allowance. Requirements: - `spender` cannot be the zero address."
      },
      "name()": {
        "details": "Returns the name of the token."
      },
      "owner()": {
        "details": "Returns the address of the current owner."
      },
      "renounceOwnership()": {
        "details": "Leaves the contract without owner. It will not be possible to call `onlyOwner` functions anymore. Can only be called by the current owner. NOTE: Renouncing ownership will leave the contract without an owner, thereby removing any functionality that is only available to the owner."
      },
      "symbol()": {
        "details": "Returns the symbol of the token, usually a shorter version of the name."
      },
      "totalSupply()": {
        "details": "See {IERC20-totalSupply}."
      },
      "transfer(address,uint256)": {
        "details": "See {IERC20-transfer}. Requirements: - `recipient` cannot be the zero address. - the caller must have a balance of at least `amount`."
      },
      "transferFrom(address,address,uint256)": {
        "details": "See {IERC20-transferFrom}. Emits an {Approval} event indicating the updated allowance. This is not required by the EIP. See the note at the beginning of {ERC20}. Requirements: - `sender` and `recipient` cannot be the zero address. - `sender` must have a balance of at least `amount`. - the caller must have allowance for ``sender``'s tokens of at least `amount`."
      },
      "transferOwnership(address)": {
        "details": "Transfers ownership of the contract to a new account (`newOwner`). Can only be called by the current owner."
      }
    },
    "version": 1
  },
  "userdoc": {
    "kind": "user",
    "methods": {},
    "version": 1
  }
}